:1000000057C6000082C6000080C600007EC6000001
:100010007CC600007AC6000078C6000076C60000E4
:1000200074C6000072C6000070C600006EC60000F4
:100030006CC600006AC6000068C6000066C6000004
:1000400064C6000062C6000060C600005EC6000014
:100050005CC600005AC6000058C600000C948D23F0
:1000600054C600000C94BD250C9401274EC6000018
:100070004CC600004AC6000048C6000046C6000044
:1000800044C6000042C6000040C600003EC6000054
:100090000C94FD250C94402738C600000C940310E6
:1000A00034C6000032C6000030C600002EC6000074
:1000B0002CC600002AC6000028C6000026C6000084
:1000C00024C6000022C6000020C600000C943D2675
:1000D0000C947F271AC600000C947D260C94BE2732
:1000E00014C600005446542063616E742066696E25
:1000F000642073756D7020666C6F61742E2E200005
:100100002020434845434B2053554D5000200020AC
:10011000556E6B6E6F776E3F00204C6576656C2078
:100120004F4B2100202020202053554D50204C4F74
:1001300057210020004C6F77204C6576656C2100BC
:100140002053756D70205374617475733A20004F9D
:100150007665726C6F616400206C757800204C6964
:10016000676874204C6576656C3A20004F4E00201D
:1001700046616E733A2000206E6F7420696E73744E
:10018000616C6C656421002050483A2000206E6F3D
:100190007420696E7374616C6C6564210020536116
:1001A0006C696E6974793A20002500462040200071
:1001B00020526F6F6D2054656D702648756D3A2022
:1001C000002054616E6B2054656D703A200020460B
:1001D000726565204D656D6F72793A20002053007D
:1001E0002053797374656D2055702054696D653A9C
:1001F0002000200020003A003A002020202020206B
:100200000020446148204171756120436F6E747213
:100210006F6C202000202020202053554D500020BE
:100220002046494C4C494E4720004E4F5721005321
:1002300074617274696E67204175746F46696C6C85
:10024000284D616E75616C29200053756D702046D4
:10025000696C6C20427574746F6E205374617465A0
:100260003A200053756D702046696C6C204275749D
:10027000746F6E2053746174653A20004175746F19
:1002800046696C6C20446F6E652120205265747540
:10029000726E696E6720746F2070726F6772616D25
:1002A0000020202020202053554D500020202046A3
:1002B000494C4C494E4720004E4F57210053746122
:1002C0007274696E67204175746F46696C6C005773
:1002D000617465722054656D7065726174757265C4
:1002E000204D61696E2054616E6B3A200054656D3B
:1002F000706572617475726520666F7220646576D0
:100300006963653A2000444F4E450052657175653A
:100310007374696E672074656D706572617475724F
:1003200065732E2E2E00202A4600486561742069D0
:100330006E6465783A2000202A460900202A43206E
:100340000054656D70657261747572653A200020A5
:1003500025090048756D69646974793A2000466121
:10036000696C656420746F20726561642066726FC9
:100370006D204448542073656E736F7221000044F1
:1003800053313330372072656164206572726F7249
:10039000212020506C6561736520636865636B2064
:1003A000746865206369726375697472792E00548C
:1003B0006865204453313330372069732073746F7C
:1003C000707065642E2020506C65617365207275B5
:1003D0006E207468652053657454696D6500200053
:1003E0002C204461746520284D2F442F5929203D2D
:1003F00020004F6B2C2054696D65203D2000205457
:10040000656D7020463A200054656D7020433A2097
:100410000053656E736F72206F7665726C6F6164E6
:1004200000206C757800202053554D50204F5645C4
:1004300052464C4F57210053756D70204F766572B0
:1004400020466C6F772120204E65656420746F20F4
:1004500073687574206F666620696E74616B6521C0
:100460000053756D70204E4F54206F766572206674
:100470006C6F77696E672120203A290053756D7083
:10048000204C6576656C204F4B21203A29200020B6
:100490007C20313D204865616C7468792C20303DAA
:1004A000204C6F772F44616E6765720053756D70D5
:1004B000204C6576656C205374617475733A200026
:1004C000005EBCE2613FDD83C29C7E20A3FD1F4134
:1004D0009DC3217FFCA2401E5F01E3BD3E6082DC24
:1004E000237D9FC1421CFEA0E1BF5D0380DE3C6214
:1004F000BEE0025CDF81633D7C22C09E1D43A1FF04
:100500004618FAA427799BC584DA3866E5BB5907F3
:10051000DB856739BAE406581947A5FB7826C49AE3
:10052000653BD987045AB8E6A7F91B45C6987A24D3
:10053000F8A6441A99C7257B3A6486D85B05E7B9C3
:100540008CD2306EEDB3510F4E10F2AC2F7193CDB3
:10055000114FADF3702ECC92D38D6F31B2EC0E50A3
:10056000AFF1134DCE90722C6D33D18F0C52B0EE93
:10057000326C8ED0530DEFB1F0AE4C1291CF2D7383
:10058000CA947628ABF517490856B4EA6937D58B73
:100590005709EBB536688AD495CB2977F4AA481663
:1005A000E9B7550B88D6346A2B7597C94A14F6A853
:1005B000742AC896154BA9F7B6E80A54D7896B3543
:1005C000E5000080000001000100000102000007BA
:1005D00003003010040000000800020209000000BF
:1005E0000A0000000C0000000D0000000F000000D9
:1005F00010000000110000001200000013000000B5
:100600001000B01711003700120038011300001756
:1006100029000D0020000000210000003000010032
:1006200031000606320004033300020234000202E5
:100630003500030136001D013700040438000404AE
:10064000390004043C0000073D001F0A5000000070
:100650005100EF005200000053003F0160000027EE
:10066000610001006A00000090001000920000008C
:10067000930003009500010197000000980000001E
:10068000070021000700310007007301000000008F
:10069000003E5B4F5B3E3E6B4F6B3E1C3E7C3E1C08
:1006A000183C7E3C181C577D571C1C5E7F5E1C004E
:1006B000183C1800FFE7C3E7FF0018241800FFE705
:1006C000DBE7FF30483A060E2629792926407F05C8
:1006D0000507407F05253F5A3CE73C5A7F3E1C1CDE
:1006E00008081C1C3E7F14227F22145F5F005F5F9E
:1006F00006097F017F006689956A6060606060948A
:10070000A2FFA29408047E040810207E201008088E
:100710002A1C08081C2A08081E101010100C1E0C99
:100720001E0C30383E3830060E3E0E06000000002B
:100730000000005F00000007000700147F147F1412
:10074000242A7F2A12231308646236495620500057
:1007500008070300001C2241000041221C002A1C43
:100760007F1C2A08083E080800807030000808082E
:100770000808000060600020100804023E5149454E
:100780003E00427F400072494949462141494D336C
:100790001814127F1027454545393C4A49493141D3
:1007A000211109073649494936464949291E0000A1
:1007B00014000000403400000008142241141414F6
:1007C0001414004122140802015909063E415D59E2
:1007D0004E7C1211127C7F494949363E41414122EB
:1007E0007F4141413E7F494949417F090909013E15
:1007F000414151737F0808087F00417F410020403C
:10080000413F017F081422417F404040407F021C4D
:10081000027F7F0408107F3E4141413E7F09090964
:10082000063E4151215E7F09192946264949493230
:1008300003017F01033F4040403F1F2040201F3FF6
:100840004038403F6314081463030478040361597B
:10085000494D43007F4141410204081020004141BD
:10086000417F040201020440404040400003070869
:100870000020545478407F28444438384444442865
:10088000384444287F385454541800087E0902180C
:10089000A4A49C787F0804047800447D4000204094
:1008A000403D007F1028440000417F40007C0478D8
:1008B00004787C080404783844444438FC18242420
:1008C0001818242418FC7C080404084854545424A0
:1008D00004043F44243C4040207C1C2040201C3C1D
:1008E0004030403C44281028444C9090907C446414
:1008F000544C4400083641000000770000004136A7
:10090000080002010204023C2623263C1EA1A1612C
:10091000123A4040207A385454555921555579415E
:100920002154547841215554784020545579400C35
:100930001E52721239555555593954545459395516
:100940005454580000457C410002457D4200014559
:100950007C40F0292429F0F0282528F07C545545C6
:10096000002054547C547C0A097F49324949493259
:100970003248484832324A4848303A4141217A3A6E
:1009800042402078009DA0A07D39444444393D4038
:1009900040403D3C24FF2424487E4943662B2FFCE5
:1009A0002F2BFF0929F620C0887E09032054547993
:1009B000410000447D413048484A32384040227A64
:1009C000007A0A0A727D0D19317D2629292F2826E1
:1009D0002929292630484D402038080808080808E9
:1009E0000808382F10C8ACBA2F102834FA00007B42
:1009F000000008142A142222142A1408AA00550000
:100A0000AAAA55AA55AA000000FF00101010FF0066
:100A1000141414FF001010FF00FF1010F010F01459
:100A20001414FC001414F700FF0000FF00FF14145E
:100A3000F404FC141417101F10101F101F141414AA
:100A40001F00101010F0000000001F101010101FE9
:100A500010101010F010000000FF101010101010F7
:100A6000101010FF10000000FF140000FF00FF0036
:100A7000001F10170000FC04F414141710171414AE
:100A8000F404F40000FF00F714141414141414F701
:100A900000F7141414171410101F101F141414F45A
:100AA000141010F010F000001F101F0000001F14A1
:100AB000000000FC140000F010F01010FF10FF14F4
:100AC0001414FF141010101F00000000F010FFFF9E
:100AD000FFFFFFF0F0F0F0F0FFFFFF00000000006C
:100AE000FFFF0F0F0F0F0F38444438447C2A2A3E73
:100AF000147E02020606027E027E026355494163AD
:100B00003844443C04407E201E2006027E020299A6
:100B1000A5E7A5991C2A492A1C4C7201724C304A3F
:100B20004D4D303048784830BC625A463D3E4949C8
:100B300049007E0101017E2A2A2A2A2A44445F4470
:100B40004440514A444040444A51400000FF0103A0
:100B5000E080FF000008086B6B083612362436066A
:100B60000F090F0600001818000000101000304098
:100B7000FF0101001F01011E00191D1712003C3C5E
:100B80003C3C000000000000002100240027002A57
:100B9000002D003000330001010000040107010AAC
:100BA0000100002200250028002B002E0031003417
:100BB0000002010000050108010B010000200023D4
:100BC00000260029002C002F003200000100000345
:100BD00001060109010505050507050808080802C1
:100BE0000202020A0A0808040404040101010101C6
:100BF0000101010303030303030303040707070CB5
:100C00000C0C0C0C0C0C0C0202020206060606066A
:100C10000606060B0B0B0B0B0B0B0B010210202017
:100C20000808102040102040800201020108040240
:100C300001010204081020408080402010080402B6
:100C4000018004020180402010080402010804020F
:100C50000101020408102040800102040810204015
:100C6000800000090A02080B0C0D070603040100AE
:100C70000000000000000000000000000000000074
:100C80000000000000000000000000000011100F34
:100C90000000000000000000000000000000000054
:100CA00000000000000000009506A90E40122D294A
:100CB00011241FBECFEFD1E2DEBFCDBF00E00CBFDD
:100CC00014E0A0E0B2E0E0E3FFE500E00BBF02C00B
:100CD00007900D92A434B107D9F71BBE18E0A4E425
:100CE000B4E001C01D92A633B107E1F71CE0C0EBF0
:100CF000DCE004C02297FE010E94922FC83AD1077F
:100D0000C9F70E94632A0C94962F7AC9FB01DC0173
:100D10004150504048F001900D920020C9F701C0A9
:100D20001D9241505040E0F70895EF920F931F93AA
:100D300084E494E069E348E327E306E33AE3E32E3F
:100D40000E94FB1C81E694E06AE24BE026E00E94F0
:100D5000A71D0FE614E0C80168E20E9422148DE787
:100D600094E068E20E9422148BE894E0B8010E94AB
:100D700058148EE994E069E329E330E340E050E061
:100D80000E94FD1F1F910F91EF9008951F93CF9325
:100D9000DF93EC0110E08881803130F48AEA97E03B
:100DA00060E072E00E94122C8AEA97E069914AE0C2
:100DB00050E00E94942B1F5F183069F7DF91CF91AC
:100DC0001F910895EF92FF920F931F930EE914E085
:100DD000C80160E070E00E946422C80161E070E038
:100DE0000E946C230AEA17E062E0E62E62E0F62E2B
:100DF000C801B7010E94F82CC80167E872E00E94A0
:100E0000122CC80166E972E00E94F82CC8016EE954
:100E100072E00E94122CC8016DEA72E00E94F82C68
:100E2000C801B7010E94F82C1F910F91FF90EF901D
:100E30000895EF92FF920F931F93DF93CF93CDB757
:100E4000DEB7A4970FB6F894DEBF0FBECDBF8EE914
:100E500094E0BE016F5F7F4F0E941A23ED88FE88E9
:100E60000F89188DC801B70120E030E040E050E064
:100E70000E946E2D882369F08AEA97E0B801A701E5
:100E800022E030E00E94E52C8AEA97E061E274E01B
:100E900004C08AEA97E061E174E00E94DD2AA4962A
:100EA0000FB6F894DEBF0FBECDBFCF91DF911F917B
:100EB0000F91FF90EF900895EF92FF920F931F9381
:100EC000DF93CF93CDB7DEB7AD970FB6F894DEBF03
:100ED0000FBECDBF8EE994E0BE01665F7F4F0E94DA
:100EE0001A2384E494E061E00E941C1984E494E0F5
:100EF00060E070E00E943A1C84E494E063E00E94A9
:100F00000D1884E494E06FE070E040E050E00E944F
:100F1000071884E494E060EE77E00E94101884E4FF
:100F200094E061E072E00E94DD2ACE0103960E9407
:100F3000B611882309F463C084E494E062E00E945F
:100F40000D1884E494E06FEF7FEF0E94101884E4A2
:100F500094E06AEF71E00E949A2A6091B204709165
:100F6000B30484E494E04AE050E00E94E32B84E47C
:100F700094E068EF71E00E949A2A6091B004709149
:100F8000B10484E494E04AE050E00E94E32B84E45E
:100F900094E066EF71E00E949A2A6091B404709127
:100FA000B50484E494E04AE050E00E94E32B84E43A
:100FB00094E064EF71E00E949A2A84E494E06F81E7
:100FC0004AE050E00E94942B84E494E06FE20E9497
:100FD000E81B84E494E068854AE050E00E94942B8A
:100FE00084E494E06FE20E94E81B698570E06E542F
:100FF000784F84E494E04AE050E00E94F52B84E4CA
:1010000094E00E9403189C012150304084E494E055
:1010100060E070E04DE250E00DE210E0AFE1EA2E5A
:10102000A8EFFA2E0E94901984E494E00E9403181D
:101030009C012150304084E494E060E070E04EE296
:1010400050E00EE210E0E12CF8EFFF2E0E94901924
:1010500084E494E00E9403189C012150304084E411
:1010600094E060E070E04FE250E00FE210E0E0EE6C
:10107000EE2EE7E0FE2E0E94901984E494E062EFE9
:1010800071E00E94DD2A84E494E060EE71E00E9449
:101090009A2A0E94D52328EE33E040E050E00E94D7
:1010A0005A2F84E494E0BA01A9012AE030E00E94BA
:1010B0006C2B84E494E06DED71E00E94DD2A84E401
:1010C00094E06EEC71E00E949A2A8091320890912F
:1010D0003308009711F486E398E0BE016F5F7F4FFD
:1010E000681B790B84E494E04AE050E00E94F52B01
:1010F00084E494E061EC71E00E949A2A84E494E034
:1011000060EE7FEF0E9410188BE894E061E00E948F
:101110009417AB01BC0184E494E022E030E00E942B
:10112000E72C84E494E06FEF7FEF0E94101884E4D2
:1011300094E060EB71E00E949A2A84E494E060EE0F
:101140007FEF0E9410186091AC047091AD0484E4AC
:1011500094E04AE050E00E94E32B84E494E06BEAE0
:1011600071E00E949A2A6091AE047091AF0484E409
:1011700094E04AE050E00E94E32B84E494E069EAC2
:1011800071E00E94DD2A84E494E06FEF7FEF0E941B
:10119000101884E494E06DE971E00E949A2A84E4D6
:1011A00094E060E078EF0E94101884E494E06DE829
:1011B00071E00E94DD2A84E494E06FEF7FEF0E94EB
:1011C000101884E494E067E871E00E949A2A84E4AD
:1011D00094E060E078EF0E94101884E494E067E700
:1011E00071E00E94DD2A84E494E06FEF7FEF0E94BB
:1011F000101884E494E06FE671E00E949A2A84E477
:1012000094E060EE7FEF0E94101884E494E06CE6B6
:1012100071E00E94DD2A84E494E06FEF7FEF0E948A
:10122000101884E494E06DE571E00E949A2A84E449
:1012300094E060EE7FEF0E941018EE8CFF8C08A106
:1012400019A1C801B70120E030E040E050E00E9461
:101250006E2D882369F084E494E0B801A70122E0B0
:1012600030E00E94E52C84E494E068E571E004C07D
:1012700084E494E06FE471E00E94DD2A84E494E069
:101280006FEF7FEF0E94101884E494E060E471E057
:101290000E949A2A84E494E060E078EF0E9410189B
:1012A00087E20E948D25892BE1F484E494E063E0D9
:1012B0000E940D1884E494E065E371E00E94DD2A49
:1012C00084E494E063E00E940D1884E494E063E316
:1012D00071E00E94DD2A84E494E064E271E00E94FF
:1012E000DD2A87E20E948D25019789F484E494E049
:1012F00060EE7FEF0E94101884E494E069E171E0F1
:101300000E94DD2A84E494E063E00E940D1887E2E5
:101310000E948D25AA2797FDA095BA2FBC01CD016B
:101320000E940D2E2EEA37E441E85FE30E94BD2EB5
:10133000181644F584E494E060E078EF0E941018F9
:1013400084E494E063E00E940D1884E494E06FE08C
:1013500071E00E94DD2A84E494E063E00E940D18AD
:1013600084E494E06DE071E00E94DD2A84E494E07E
:1013700060E071E00E94DD2A8AEA97E064EE70E0A6
:101380000E949A2AAD960FB6F894DEBF0FBECDBF6D
:10139000CF91DF911F910F91FF90EF9008958AEA0E
:1013A00097E063E672E00E949A2A83E30E948D250B
:1013B000BC018AEA97E04AE050E00E94E32B83E315
:1013C0000E948D25892B09F074C08AEA97E06AE4AF
:1013D00072E00E949A2A83E30E948D25BC018AEA6A
:1013E00097E04AE050E00E94F52B81E260E00E9425
:1013F0005B258EE161E00E945B258AEA97E06FE25F
:1014000072E00E949A2A8AEA97E06AE272E00E94F9
:10141000DD2A84E361E00E94A82484E360E00E9466
:101420005B2584E494E060E070E00E943A1C84E470
:1014300094E061E00E941C1984E494E064E00E945E
:101440000D1884E494E069E170E044E650E00E9405
:10145000071884E494E060EE7FEF0E94101884E4A3
:1014600094E06FE172E00E94DD2A84E494E065E19B
:1014700072E00E94DD2A84E360E00E945B2568EE52
:1014800073E080E090E00E94E32383E30E948D25D7
:10149000892B09F4AACF64E170E080E090E00E941B
:1014A000E32384E361E00E945B258EE160E00C941D
:1014B0005B2508950197A1F481E260E00E945B251D
:1014C0008EE161E00E945B258AEA97E06DEB72E0B5
:1014D0000E949A2A8AEA97E068EB72E00E949A2AB0
:1014E00084E494E060E070E00E943A1C84E494E0BC
:1014F00061E00E941C1984E494E064E00E940D18ED
:1015000084E494E069E170E04BE450E00E94071845
:1015100084E494E060EE7FEF0E94101884E494E08D
:101520006CEA72E00E94DD2A84E494E061EA72E0F1
:101530000E94DD2A84E361E00E94A82484E360E045
:101540000E945B2568EE73E080E090E00E94E32358
:1015500087E20E948D25892B19F28EE160E00E94BE
:101560005B258AEA97E06CE772E00C949A2A8AEA93
:1015700097E06CEA74E00E949A2A87E20E948D2527
:10158000BC018AEA97E04AE050E00E94E32B8AEA35
:1015900097E06FE874E00E94DD2A87E20E948D25C3
:1015A00087E20E948D25892B61F48EE161E00E9423
:1015B0005B2581E260E00E945B2581E090E07ADFBC
:1015C00057C087E20E948D25019729F48AEA97E0A7
:1015D0006CE774E009C086E20E948D25892B59F4DE
:1015E0008AEA97E061E674E00E94DD2A81E261E028
:1015F0000E945B253DC086E20E948D250197C1F5C2
:101600008AEA97E067E374E00E949A2A84E494E00F
:1016100060E078EF0E943A1C84E494E061E00E946C
:101620001C1984E494E063E00E940D1884E494E0C3
:1016300069E170E044E650E00E94071884E494E019
:1016400060EE7FEF0E94101884E494E066E274E09C
:101650000E94DD2A81E260E00E945B258FE161E06B
:101660000E945B2568EE73E080E090E00E94E32337
:1016700084E361E00E945B2581E261E00E945B25DA
:101680008EE160E00C945B252F923F924F925F9227
:101690006F927F928F929F92AF92BF92CF92DF9282
:1016A000EF92FF920F931F9381E694E00E946B1ECE
:1016B0001B012C0181E694E060E00E94BB1E3B010F
:1016C0004C0181E694E061E00E94BB1E5B016C016D
:1016D000C201B101A20191010E94242F882381F44B
:1016E000C401B301A40193010E94242F882341F473
:1016F000C601B501A60195010E94242F882331F06F
:101700008AEA97E06EE573E00E94DD2A81E694E0C4
:10171000B601A501920181010E94261F7B018C0167
:101720008AEA97E063E573E00E949A2A8AEA97E0E2
:10173000B201A10122E030E00E94E52C8AEA97E0A4
:101740006FE473E00E949A2A8AEA97E061E473E00A
:101750000E949A2A8AEA97E0B401A30122E030E0CD
:101760000E94E52C8AEA97E06CE373E00E949A2AD3
:101770008AEA97E0B601A50122E030E00E94E52C5C
:101780008AEA97E067E373E00E949A2A8AEA97E080
:101790006AE273E00E949A2A8AEA97E0B801A701F8
:1017A00022E030E00E94E52C8AEA97E066E273E0EE
:1017B0000E94DD2AC601B5010E94DA2D7093AD04A6
:1017C0006093AC04C201B1010E94DA2D7093AF04A2
:1017D0006093AE041F910F91FF90EF90DF90CF9038
:1017E000BF90AF909F908F907F906F905F904F9041
:1017F0003F902F900895CF92DF92EF92FF920F9338
:101800001F93BC018BE894E00E948C166B017C0155
:101810000AEA17E0C80168E074E00E949A2AC80149
:10182000B701A60122E030E00E94E52CC8016EEF6E
:1018300073E00E949A2AC701B6010E942515AB01E8
:10184000BC01C80122E030E00E94E72C1F910F91FB
:10185000FF90EF90DF90CF900895CF93DF938AEAC7
:1018600097E06BE073E00E949A2A8BE894E00E9474
:1018700061168AEA97E066E073E00E94DD2AC0E024
:10188000D0E01AC08BE894E068EB74E04C2F0E9423
:101890004417882381F08AEA97E06DEE72E00E9497
:1018A0009A2A8AEA97E0BE014AE050E00E94F52BAE
:1018B00088EB94E0A0DF21968091B6049091B70464
:1018C000C817D907FCF28AEA97E06FEC72E00E9431
:1018D0009A2A8BE894E061E00E949417AB01BC0166
:1018E0008AEA97E022E030E00E94E72CDF91CF9176
:1018F0000895EF92FF920F931F93CF93DF938AEA9D
:1019000097E040E855E260E070E00E94FD278AEA37
:1019100097E063EB72E00E94F82C8CEC97E040E8D3
:1019200055E260E070E00E94FD2784E361E00E94E0
:10193000A8248EE161E00E94A82483E362E00E9473
:10194000A82486E262E00E94A82487E262E00E9466
:10195000A8248FE161E00E94A82481E261E00E9456
:10196000A8248DE061E00E94A82480E261E00E944A
:10197000A8248DE061E00E94A82481E260E00E943A
:101980005B258FE160E00E945B258EE160E00E94B4
:101990005B2580E260E00E945B258DE060E00E94B4
:1019A0005B2584E361E00E945B258DE060E00E949E
:1019B0005B250E94D5237B018C010E94D5239B01CE
:1019C000AC012E193F098AEA97E0B9014AE050E0DC
:1019D0000E94792B8BE894E00E94A1178BE894E099
:1019E00076D78093B6041092B7048AEA97E064EE43
:1019F00072E00E94122C6091B6047091B7048AEADA
:101A000097E04AE050E00E94E32B8AEA97E06BEE11
:101A100072E00E94F82C8AEA97E065EF72E00E947B
:101A2000122C8BE894E00E942115882329F08AEA81
:101A300097E069E073E004C08AEA97E06CE073E045
:101A40000E94F82CC0E0D0E065C08BE894E068EB21
:101A500074E04C2F0E944417882309F447C08AEA97
:101A600097E060E173E00E94122C8AEA97E0BE01E1
:101A70004AE050E00E94E32B8AEA97E06EE173E0CF
:101A80000E94122C88EB94E081D98AEA97E00E94A8
:101A9000BD2A8AEA97E06EE273E00E94122C8AEA7D
:101AA00097E06CE070E04AE050E00E94F52B8BE894
:101AB00094E068EB74E04CE00E94F3168AEA97E049
:101AC00065E473E00E94122C8BE894E068EB74E00C
:101AD0000E94BE16682F8AEA97E04AE050E00E9412
:101AE000942B8AEA97E00E94BD2A13C08AEA97E005
:101AF00062E673E00E94122C8AEA97E0BE014AE097
:101B000050E00E94E32B8AEA97E069E773E00E94C5
:101B1000122C21968091B6049091B704C817D9076A
:101B20000CF493CF84E494E00E94B11C84E494E02C
:101B30000E94D81C81E694E00E94AE1D04E014E0EF
:101B4000C0E0D0E008C0F801808161E00E94A824D4
:101B500021960E5F1F4F8091100490911104C817B9
:101B6000D9078CF38EE994E00E944822882339F447
:101B70008AEA97E060EB73E00E94122CFFCF22D933
:101B80008AEA97E066E872E00E94F82CDF91CF9134
:101B90001F910F91FF90EF900895CF93DF93EC0189
:101BA0008A30910528F48AEA97E060E30E94ED28E4
:101BB0008AEA97E0BE014AE050E00E94E32BDF9101
:101BC000CF910895DF93CF93CDB7DEB727970FB6A8
:101BD000F894DEBF0FBECDBFCE010196C7D38823D8
:101BE00009F457C08AEA97E062EF73E00E949A2AEC
:101BF0008B8190E0D2DF8AEA97E06AE30E94ED28C9
:101C00008A8190E0CADF8AEA97E06AE30E94ED28C1
:101C1000898190E0C2DF8AEA97E060EE73E00E947B
:101C20009A2A8AEA97E06D814AE050E00E94942B5C
:101C30008AEA97E06FE20E94ED288AEA97E06E81D7
:101C40004AE050E00E94942B8AEA97E06FE20E94FB
:101C5000ED286F8170E06E54784F8AEA97E04AE091
:101C600050E00E94E32B8AEA97E06EED73E00E9459
:101C7000DD2A8A818093B0041092B1048981809317
:101C8000B4041092B5048B818093B2041092B30413
:101C900015C080918005882329F08AEA97E06FEAD1
:101CA00073E00AC08AEA97E06FE773E00E94DD2ADA
:101CB0008AEA97E06EE773E00E94DD2A27960FB666
:101CC000F894DEBF0FBECDBFCF91DF9108957ADFCC
:101CD000DBDCC3DD4CDC63DBACD8EED860CB81E071
:101CE000809305056093E2041092030510920405A9
:101CF00008952091E10430E08091E004281B31092F
:101D0000C90108954091E0048091E104481718F05A
:101D10002FEF3FEF0AC0E42FF0E0E054FB4F80814B
:101D2000282F30E04F5F4093E004C9010895E0910F
:101D3000E0048091E104E81718F0EFEFFFEF06C030
:101D4000F0E0E054FB4F8081E82FF0E0CF010895F0
:101D50000895109209051092080588EE93E0A0E01E
:101D6000B0E080930A0590930B05A0930C05B09307
:101D70000D0586E194E0909307058093060508958C
:101D8000CF92DF92EF92FF920F931F93CF93DF9347
:101D90007C016B018A01809105058823A1F0C0E0D8
:101DA000D0E00DC0D701ED91FC91D601AC0FBD1F65
:101DB0000190F081E02DC7016C9119952196C01713
:101DC000D10780F303C0CB01642F02D1C801DF919A
:101DD000CF911F910F91FF90EF90DF90CF900895DA
:101DE000DF93CF930F92CDB7DEB7FC01698380916B
:101DF00005058823C9F080910405803238F081E020
:101E000090E09383828320E030E014C0809103054A
:101E1000E82FF0E0ED51FB4F998190838F5F809325
:101E200003058093040504C0CE01019661E0D0D083
:101E300021E030E0C9010F90CF91DF9108950F9319
:101E4000062F8091E20463EE74E04091040521E0E6
:101E50006AD01092030510920405109205050F91A7
:101E6000089561E0ECCF413208F040E2862F60EC4B
:101E700074E010D01092E0048093E104089521E012
:101E8000F2CF1092E0041092E10410920305109238
:101E900004054EC2382F413210F040E042C080911C
:101EA00012058823E1F791E0909312052093140521
:101EB0008FEF80937F0510923A05415040933B0588
:101EC0004F5F9093130580911305330F832B8093FD
:101ED000130580911505813041F41092150580910C
:101EE00013058093BB0085EC01C085EE8093BC0098
:101EF000809112058130E1F380913A05841710F446
:101F000040913A0520E030E00AC0FB01E20FF31FE8
:101F1000D901A65EBA4F8C9180832F5F3F4F241763
:101F2000A0F3842F08950F931F93582F122F41323F
:101F300010F081E04AC0809112058823E1F782E029
:101F400080931205009314058FEF80937F05109204
:101F50003A0540933B05AAE1B5E0FB0102C081913F
:101F60008D938E2F861B8417D0F3109213058091CA
:101F70001305550F852B809313058091150581302E
:101F800041F410921505809113058093BB0085ECF8
:101F900001C085EE8093BC00112321F080911205D1
:101FA0008230E1F380917F058F3F11F480E00DC016
:101FB00080917F05803211F482E007C080917F0517
:101FC000803311F084E001C083E01F910F910895E8
:101FD000482F613210F081E008958091120584301D
:101FE00011F082E0089560935D05ACE3B5E0842FC5
:101FF0009C01F90102C081918D938E2F841B86175D
:10200000D0F380E008951F920F920FB60F920BB697
:102010000F9211242F933F934F935F936F937F936E
:102020008F939F93AF93BF93EF93FF938091B900EA
:1020300090E0887F90708036910509F4F2C0813677
:102040009105CCF58832910509F47BC08932910560
:10205000B4F48031910509F46FC0813191053CF4ED
:10206000009709F447C1089709F04FC165C088314E
:10207000910509F466C0809709F047C182C0803499
:10208000910509F4A4C08134910544F4803391058D
:1020900009F482C0C89709F038C189C0803591051C
:1020A00009F489C08835910509F496C088349105F2
:1020B00009F02BC1AEC08839910509F413C18939E3
:1020C0009105ECF48837910509F4ABC08937910587
:1020D0004CF48836910509F4A4C08037910509F0C5
:1020E00014C19FC08838910509F4FCC0803991055E
:1020F00009F49DC08038910509F007C198C0803B64
:10210000910509F4C6C0813B91054CF4803A9105D4
:1021100009F49FC0883A910509F0F7C0BAC0803C25
:10212000910509F4E3C0883C910509F4DFC0883BC0
:10213000910509F0EAC0C2C0809113058093BB00ED
:10214000CFC090913A0580913B05981768F4909123
:102150003A05E92FF0E0E65EFA4F80818093BB00FC
:102160009F5F90933A05BCC080911405882309F4C1
:102170004BC085ED8093BC008091BC0084FDFCCFFA
:10218000C2C080E280937F0585ED8093BC00809182
:10219000BC0084FDFCCFB7C080E380937F0585ED54
:1021A0008093BC008091BC0084FDFCCFACC088E370
:1021B00080937F059BC080913A059091BB00E82FEA
:1021C000F0E0E65EFA4F90838F5F80933A0590913E
:1021D0003A0580913B0582C080913A059091BB0001
:1021E000E82FF0E0E65EFA4F90838F5F80933A0528
:1021F00080911405882341F085ED8093BC00809187
:10220000BC0084FDFCCF7FC081E08093150584EA8B
:102210006EC085ED8093BC008091BC0084FDFCCF36
:1022200072C083E08093120510927E0559C08091A0
:102230007E05803208F056C080917E059091BB00EB
:10224000E82FF0E0E25AFA4F90838F5F80937E058B
:1022500047C080917E05803230F4E0917E05F0E049
:10226000E25AFA4F108285ED8093BC008091BC0049
:1022700084FDFCCF1092120560917E05E091180557
:10228000F09119058EE595E070E0199510927E05A4
:102290002DC084E08093120510925C0510925D05BC
:1022A000E0911605F0911705199580915D05882339
:1022B00029F481E080935D0510923C0590915C05C6
:1022C000E92FF0E0E45CFA4F80818093BB009F5FD0
:1022D00090935C0590915C0580915D05981710F4D2
:1022E00085EC01C085E88093BC000FC085EC80932D
:1022F000BC0009C010927F0585ED8093BC008091E1
:10230000BC0084FDFCCF10921205FF91EF91BF91AC
:10231000AF919F918F917F916F915F914F913F917D
:102320002F910F900BBE0F900FBE0F901F9018951E
:102330001092120581E0809314051092150584E136
:1023400061E00E945B2585E161E00E945B25E9EB8D
:10235000F0E080818E7F808380818D7F808388E420
:102360008093B80085E48093BC0008950F931F9379
:10237000CF93DF93EC0186E095E068E670E0AFDC98
:1023800086E095E060E02CDD86E095E06ADD88235C
:1023900019F0109280050FC081E08093800586E0DF
:1023A00095E068E670E047E050E069DD86E095E0A2
:1023B000A0DC079714F480E05EC086E095E0A2DC24
:1023C000082F8F7782958F701AE0819FC0011124AA
:1023D000202F2F70280F288386E095E093DC282F8C
:1023E00022952F70219F900111248F70820F898375
:1023F00086E095E087DC282F2F7322952F70219F90
:10240000900111248F70820F8A8386E095E07ADC38
:10241000282F22952F70219F900111248F70820FF9
:102420008B8386E095E06EDC282F22952F70219F0C
:10243000900111248F70820F8C8386E095E062DC1E
:10244000282F22952F70219F900111248F70820FC9
:102450008D8386E095E056DC282F2F70225E8295D2
:102460008F70819FC0011124280F2E83802F8095AB
:10247000881F8827881FDF91CF911F910F910895A2
:1024800086E095E0FECCFC0113861586148687E075
:1024900090E012863197009711F00197FACF0895D6
:1024A000DC0180E00BC0E82FF0E08D9190E0E827A0
:1024B000F927E054FB4FE49161508E2F662399F782
:1024C0000895DF92EF92FF920F931F93FC01E0803B
:1024D00001811281F894F80181818E2981838281A2
:1024E000DE2CD0948D21828383E090E00E943C24F6
:1024F000F80181818D2181838AE090E00E943C2453
:10250000F8010081789485E390E00E943C2480E00B
:1025100010E0FF240E211F21012B09F081E01F9103
:102520000F91FF90EF90DF900895EF92FF920F933D
:102530001F93CF93DF937C0101E010E0C0E0D0E077
:10254000C701BFDF8111102B000F2196C830D105C4
:10255000B9F7812FDF91CF911F910F91FF90EF90ED
:1025600008951F93CF93DF93FC011081C181D28125
:10257000912F909560FF12C0F8948A8189238A83F5
:102580008981812B89838AE090E00E943C248A81A2
:10259000812B8A83789487E390E011C0F8948A8134
:1025A00089238A838981812B898381E490E00E9439
:1025B0003C248A81812B8A83789485E090E00E9474
:1025C0003C24DF91CF911F910895CF92DF92EF923B
:1025D000FF920F931F93CF93DF938C01E42EFF2480
:1025E000F394C0E0D0E0C62EDD2460E08F2D90E0B3
:1025F0008C219D21892B09F061E0C801B2DFFF0C1D
:102600002196C830D10589F7EE20A9F4F894D801B5
:102610001196ED91FC91129791818C918095982360
:1026200091831196ED91FC91129792818C918095F6
:10263000982392837894DF91CF911F910F91FF900F
:10264000EF90DF90CF9008956CEC40E0BECFEF921A
:10265000FF920F931F93CF93DF938C017B0165E56E
:1026600040E0B3DFC0E0D0E0F701EC0FFD1FC80190
:10267000608140E0AADF2196C830D105A9F7DF913B
:10268000CF911F910F91FF90EF900895DF92EF92FD
:10269000FF920F931F93CF93DF93FC010081C181C1
:1026A000D281F8948981D02ED0948D218983789419
:1026B0001DE7E02EFF24115059F182E090E00E94C6
:1026C0003C24888190E08E219F21892BA1F3F894EE
:1026D0008A818D218A838981802B8983789484EFF4
:1026E00091E00E943C24F89489818D21898380E5C2
:1026F00090E00E943C24888110E090E0E822F922DA
:10270000EF2809F411E0789484EA91E00E943C24D7
:10271000812FDF91CF911F910F91FF90EF90DF906C
:102720000895AF92BF92DF92EF92FF920F931F93A3
:10273000CF93DF93EC015B018D85882309F05CC0AA
:10274000CE01A4DF882329F41B861D861C8690E019
:1027500067C0CE0160EF40E038DF01E0DD24EE2409
:10276000FF24F394CE01ADDE182FCE01AADE113086
:1027700019F48130E1F438C0181709F58B85081772
:1027800070F460E0FE01EE0DF11D838190E02F2DCD
:1027900030E082239323181619064CF003C060E042
:1027A000081729F0093008F04BC00C8749C0FE011A
:1027B000EE0DF11D83818F29838361E009C0612FB4
:1027C000FE01EE0DF11D9F2D90958381892383835A
:1027D000CE01C7DE0F5FFF0C19F4E394FF24F394DE
:1027E00087E08E1508F0BECF013430F0DB86DD20A7
:1027F00011F581E08D871FC01B861D861C8690E029
:10280000DE0120E030E0F501E20FF31F13968C911A
:10281000139780832F5F3F4F11962830310599F72A
:10282000892FDF91CF911F910F91FF90EF90DF9053
:10283000BF90AF9008958B818823F1F291E0E0CFB3
:10284000D02EBECFFF920F931F938C01F62E862FB2
:1028500060E00E94A8248F2D90E0FC01E55EF34F1C
:10286000E491D801EC938B52944FFC016491E62FD4
:10287000F0E0EE0FFF1FE554F44F8591949112960E
:102880009C938E9311971B961C921B971D961C92DE
:102890001D971C961C92F80187E090E012863197F4
:1028A000009711F00197FACF1F910F91FF900895B3
:1028B000FC0184E295E1928B818B7683658314829F
:1028C000108289E0818381E0828383830895FC0103
:1028D000848108956F927F928F929F92AF92BF9260
:1028E000CF92DF92EF92FF920F931F93CF93DF93DC
:1028F000FB01EA01998180E0288130E0282B392B07
:10290000E081E23231F0E83221F0E03109F084C0B8
:102910004BC04C814F3329F1403420F44F3109F042
:102920007BC02FC04F3579F04F3709F075C0B90122
:10293000882777FD8095982F0E940D2E20E030E0AB
:1029400040E85DE32EC035952795B901882777FDCE
:102950008095982F0E940D2E20E030E040E05EE34D
:1029600020C03595279535952795B901882777FD9E
:102970008095982F0E940D2E20E030E040E85EE325
:1029800010C093E0359527959A95E1F7B90188270E
:1029900077FD8095982F0E940D2E20E030E040E0DA
:1029A0005FE30E94C12E32C0EF8035952795B901B3
:1029B000882777FD8095982F0E940D2E20E030E02B
:1029C00040E85EE30E94092D3B014C016E2D70E052
:1029D0002E81621B7109882777FD8095982F0E94B0
:1029E0000D2E5B016C01FF2400E010E0C801B7016F
:1029F0000E940B2E9B01AC01C601B5010E94722DF5
:102A00009B01AC01C401B3010E940A2D9B01AC01E2
:102A1000832F942F752F00C0262F382F492F572F23
:102A2000B901CA01DF91CF911F910F91FF90EF90F3
:102A3000DF90CF90BF90AF909F908F907F906F90DE
:102A40000895FC0180810895089526E636E646EE55
:102A50005FE30E94C12E20E030E040E052E40C949D
:102A60000A2DEF92FF920F931F938C017B01FC01C3
:102A7000858196810BDEF80185819681B701E7DDBE
:102A8000F8018581968164EB40E09FDDF801858146
:102A9000968117DDF82EF80185819681F7DD80E0BB
:102AA000FF2009F481E01F910F91FF90EF900895AE
:102AB000EF92FF920F931F93CF93DF93EC018B0163
:102AC0007A018D819E81E2DD8D819E81B801BFDD1D
:102AD0008D819E816EE440E078DD8D819E81F701DD
:102AE000628140E072DD8D819E81F701638140E06B
:102AF0006CDDF8018081803131F08D819E81F7019C
:102B0000648140E062DD8D819E81C0DD8D819E818A
:102B100068E448815ADD8881882331F06AE070E0FA
:102B200080E090E00E94E3238D819E81AFDDDF9104
:102B3000CF911F910F91FF90EF900895CF92DF9268
:102B4000EF92FF920F931F938C016B017A01FC01AE
:102B5000858196819BDDF80185819681B60177DDBF
:102B6000F801858196816EEB40E02FDDF8018581CB
:102B70009681DBDCF7018083F80185819681D5DCC5
:102B8000F7018183F80185819681CFDCF70182838B
:102B9000F80185819681C9DCF7018383F80185817D
:102BA0009681C3DCF7018483F80185819681BDDCC1
:102BB000F7018583F80185819681B7DCF70186836B
:102BC000F80185819681B1DCF7018783F801858161
:102BD0009681ABDCF7018087F8018581968156DD0F
:102BE0001F910F91FF90EF90DF90CF900895DF93AA
:102BF000CF93CDB7DEB729970FB6F894DEBF0FBEDF
:102C0000CDBFAE014F5F5F4F99DF8981811181E0B8
:102C100029960FB6F894DEBF0FBECDBFCF91DF91DE
:102C20000895CF92DF92EF92FF920F931F93CF936D
:102C3000DF93EC016B01452BD9F08B818823C1F028
:102C400088818823A9F40E94D5237B018C01CE01C1
:102C500060E070E0CCDF882359F40E94D5236E1920
:102C60007F09800B910B6E5E72408040904078F33C
:102C7000F6016081693039F06930A0F06A3041F0C6
:102C80006B3081F40AC06EE570E080E090E00EC029
:102C90006CEB70E080E090E009C067E771E080E0F5
:102CA00090E004C06EEE72E080E090E00E94E323CA
:102CB000DF91CF911F910F91FF90EF90DF90CF9018
:102CC0000895CF93DF93EC018D819E81DFDC8D81B0
:102CD0009E81BADC8D819E8164E4488176DC8A81A4
:102CE000882331F0CE012196BE0140E050E099DF0B
:102CF000DF91CF9108950F931F938A011FDFC801C1
:102D000068E0CEDB20E0F8019085891709F421E026
:102D1000822F1F910F910895CF92DF92EF92FF9231
:102D20000F931F93DF93CF93CDB7DEB729970FB6DD
:102D3000F894DEBF0FBECDBF8C017B016E010894FD
:102D4000C11CD11CA601D7DF882329F460E070E004
:102D50008EEF92EC04C0C801B701A601BBDD299635
:102D60000FB6F894DEBF0FBECDBFCF91DF911F919C
:102D70000F91FF90EF90DF90CF900895DF93CF9366
:102D8000CDB7DEB729970FB6F894DEBF0FBECDBF23
:102D90009C01FB0180818031D1F0C901AE014F5F00
:102DA0005F4FA9DF8823A9F08D818F3371F08034C4
:102DB00018F48F3171F40BC08F3519F08F3749F447
:102DC00002C08BE007C08CE005C08AE003C089E048
:102DD00001C080E029960FB6F894DEBF0FBECDBFCC
:102DE000CF91DF910895CF92DF92EF92FF921F93E0
:102DF000DF93CF93CDB7DEB729970FB6F894DEBF38
:102E00000FBECDBF6C017B01142FAE014F5F5F4F32
:102E100072DF8823D9F0F70180818031B1F01A3058
:102E200051F01A3050F01B3021F01C3031F48FE794
:102E300005C08FE503C08FE301C08FE18D83C6011C
:102E4000B701AE014F5F5F4F33DE81E029960FB6C9
:102E5000F894DEBF0FBECDBFCF91DF911F91FF90E1
:102E6000EF90DF90CF9008950F931F938B01CB01CC
:102E700067E016DB20E0F8019781891709F421E06B
:102E8000822F1F910F910895EF92FF920F931F933E
:102E9000CF93DF93EC017B01042F8D819E81F3DAC8
:102EA00010E006C0CE01B701DFDF8823A1F009C022
:102EB0008D819E81B70135DC882329F0101759F4E4
:102EC000F1CF81E001C080E0DF91CF911F910F91A0
:102ED000FF90EF9008951F5F0117A8F3E9CFEF92DD
:102EE000FF920F931F93DF93CF93CDB7DEB7289751
:102EF0000FB6F894DEBF0FBECDBF7C01462F8E010A
:102F00000F5F1F4FB801C0DFC701B80105DF28966A
:102F10000FB6F894DEBF0FBECDBFCF91DF911F91EA
:102F20000F91FF90EF900895DADF26E636E646EE41
:102F30005FE30E94C12E20E030E040E052E40C94B8
:102F40000A2DAF92BF92CF92DF92EF92FF920F9332
:102F50001F93DF93CF93CDB7DEB761970FB6F89489
:102F6000DEBF0FBECDBF7C01FC01858196818BDA6F
:102F7000F70114826E010894C11CD11C79E0A72EC0
:102F8000B12CAC0EBD1E01E026C0C701B6016CDF3E
:102F9000882309F1F7018081882339F4C701B6013C
:102FA00060DD882311F0F7010083C701B601A50198
:102FB000C5DDF7011181C701B601E0DE811718F404
:102FC000F701818103C0C701B601D8DEF701818313
:102FD00084818F5F8483F70185819681B601A1DBAF
:102FE000882399F661960FB6F894DEBF0FBECDBF69
:102FF000CF91DF911F910F91FF90EF90DF90CF90D5
:10300000BF90AF900895FC01818992890895FC01D9
:10301000778B668B518F408F0895FC01658B0895E7
:10302000FC01738F628F0895CF93DF93DC011B96B1
:103030008C911B97E82FF0E0EE0FFF1F41EA5BE059
:10304000E40FF51F2591349119968C91199790E012
:10305000880F991F840F951FFC01C591D491988109
:103060001D968C911D978095982398831A968C9124
:103070001A9790E0880F991F840F951FFC01C59146
:10308000D49188811E969C911E97892B88831C96CB
:103090008C911C9790E0880F991F840F951FFC015D
:1030A000C591D491888150969C915097892B8883A3
:1030B000F90180811F969C911F97892B80838FEF48
:1030C00081B972B990811F968C911F978095982332
:1030D000908380811F969C911F97892B808362B972
:1030E00090811F968C911F97809598239083808163
:1030F0001F969C911F97892B808319968C91199705
:1031000090E0880F991F840F951FFC01C591D49101
:1031100088811D969C91892B8883DF91CF9108959A
:10312000CF93DF93DC011B968C911B97E82FF0E087
:10313000EE0FFF1F41EA5BE0E40FF51F259134918C
:1031400019968C91199790E0880F991F840F951FFD
:10315000FC01C591D49198811D968C911D97809505
:10316000982398831A968C911A9790E0880F991F4C
:10317000840F951FFC01C591D49198811E968C9166
:103180001E978095982398831C968C911C9790E0AD
:10319000880F991F840F951FFC01C591D4918881D8
:1031A00050969C915097892B8883F90180811F96B6
:1031B0009C911F97892B80838FEF81B972B9908181
:1031C0001F968C911F9780959823908380811F96DE
:1031D0009C911F97892B808362B990811F968C9157
:1031E0001F9780959823908380811F969C911F97AD
:1031F000892B808319968C91199790E0880F991FDD
:10320000840F951FFC01C591D49188811D969C91D6
:10321000892B8883DF91CF910895EF92FF920F93CE
:103220001F938C017A017CDFC801B701FDDE1F917D
:103230000F91FF90EF9008951F93CF93DF93EC01D0
:10324000162F63E070E040E350E1E7DF13701C8F5E
:10325000113071F0113028F0123019F0133081F470
:1032600007C080EF90E09A8B898B80E491E006C0E4
:1032700080E491E09A8B898B80EF90E09C8B8B8B24
:10328000DF91CF911F910895EF92FF920F931F93BB
:10329000CF93DF938C01FB01EA017901DC015C969D
:1032A0008C91823059F08330B1F08130D1F48FEEBF
:1032B00090E0841B950BEB01FC0113C08FEE90E0B6
:1032C0009C01261B370BF9018FE391E0DC01A41B65
:1032D000B50BED0106C08FE391E0861B970BFA0159
:1032E000EC01E03FF105A8F4B1E0C034DB0788F45D
:1032F000C80160E270E0AF0190DFC80161E270E0F8
:10330000AE018BDFC80162E270E00ADFC801B701DD
:103310008BDEDF91CF911F910F91FF90EF90089579
:103320002F923F924F925F926F927F928F929F92D5
:10333000AF92BF92CF92DF92EF92FF920F931F93C3
:10334000DF93CF9300D00F92CDB7DEB79A838983F6
:103350007C836B836A015901170144245524980129
:10336000241B350B37FF03C0309521953F4FC50116
:103370004B815C81841B950B97FF03C090958195D1
:103380009F4F821793075CF421E0422E512CC60117
:10339000CB80DC809C838B83C80185015C018B81A1
:1033A0009C81A816B90644F4C501AB80BC809C83FF
:1033B0008B83C80186016C013501EB81FC816E1A9B
:1033C0007F0A7801EC18FD08F7FE04C0F094E19440
:1033D000F108F394C016D10624F088248A94982C1E
:1033E00003C091E0892E912CC30162E070E00E943D
:1033F000472F8B011EC04114510431F089819A81FD
:10340000B6014B815C8105C089819A816B817C8189
:10341000A601910139DF0E191F0917FF04C0C80C5E
:10342000D91C060D171D4B815C814F5F5F4F5C837C
:103430004B838B819C81A816B906ECF60F900F90F8
:103440000F900F90CF91DF911F910F91FF90EF9010
:10345000DF90CF90BF90AF909F908F907F906F90B4
:103460005F904F903F902F9008959F92AF92BF92A0
:10347000CF92DF92EF92FF920F931F93CF93DF9340
:103480006C015901902EF12EFC01848D813089F060
:10349000813038F08230D9F0833031F18B01EA018C
:1034A00030C0EE2019F48B01EA0129C08B01EA013A
:1034B00007C00FEE10E0041B150BEE2021F4EB010A
:1034C00048E250E11EC0EB0140E050E11AC00FEEAF
:1034D00010E0061B170BCFE3D1E0C41BD50BEE2089
:1034E00051F440E250E10DC0CFE3D1E0C61BD70B51
:1034F000EE2021F48A0148E050E103C08A0140E354
:1035000050E1C60163E070E088DEC60160E270E071
:10351000A80183DEC60161E270E0AE017EDEC60175
:1035200062E270E0FDDDF601818590E0880F991F71
:103530008F55944FFC01A591B4919C91F60185851E
:10354000809598239C93828590E0880F991F8F55D2
:10355000944FFC01A591B4918C91F6019685892B2D
:103560008C93848590E0880F991F8F55944FFC01B0
:10357000A591B4918C91F6019089892B8C938385C8
:1035800090E0880F991F8F55944FFC01A591B4913D
:103590008C91F6019785892B8C938FEF81B922C08E
:1035A000F601838590E0880F991F8F55944FFC0199
:1035B000A591B491F2B89C91F601878580959823E6
:1035C0009C938C919785892B8C9392B89C9187853D
:1035D000809598239C938C919785892B8C93089444
:1035E000A108B108A114B104D9F6F601818590E0D3
:1035F000880F991F8F55944FFC01A591B4918C9120
:10360000F6019585892B8C93C60163E070E040E359
:1036100050E103DEDF91CF911F910F91FF90EF906A
:10362000DF90CF90BF90AF909F900895EF920F934F
:103630001F93FC01838994894817590718F4CF0117
:10364000EE2413DF1F910F91EF9008956F927F92F8
:103650008F929F92AF92BF92CF92DF92EF92FF92A2
:103660000F931F93CF93DF933C014B015901E80166
:1036700067010BC07A010894E11CF11CC301B4017D
:1036800095018601D3DF2197A701209799F7DF9154
:10369000CF911F910F91FF90EF90DF90CF90BF904F
:1036A000AF909F908F907F906F9008952F923F9250
:1036B0004F925F926F927F928F929F92AF92BF9242
:1036C000CF92DF92EF92FF920F931F93DF93CF93EE
:1036D000CDB7DEB72F970FB6F894DEBF0FBECDBFC4
:1036E0009C838B837E836D8358874F831A870987DA
:1036F000EB8685E02802A00111245A8349836E2CB1
:1037000077242B01AA24BB247D866C86E981FA816B
:10371000EA0DFB1DE457F94F84918F809884CC24E7
:10372000DD242D803E802A0C3B1CA82FB0E0BF87F3
:10373000AE8780FF17C0BB85B13059F44F815885E3
:103740004C0D5D1D8B819C81B10129853A859CDDE5
:1037500009C08B819C81B201A40193018301E9849A
:10376000FA8474DF0894C11CD11CEC85FD858E0E93
:103770009F1EF8E0CF16D10441F02E853F85359588
:1037800027953F872E878E85D0CF0894A11CB11C2A
:10379000460C571C35E0A316B10409F0B7CF2F969D
:1037A0000FB6F894DEBF0FBECDBFCF91DF911F9152
:1037B0000F91FF90EF90DF90CF90BF90AF909F90D0
:1037C0008F907F906F905F904F903F902F900895D3
:1037D000EF920F931F93CF93DF93EC01262F6A3064
:1037E00081F42D8930E003E0220F331F0A95E1F7C1
:1037F000888D998D820F931F998F888F1F8A1E8ABB
:1038000015C06D3099F06E897F89488D598D0A8D6C
:103810001B8DED884BDF2D8986E0289F90011124B8
:103820008E899F89820F931F9F8B8E8BDF91CF9103
:103830001F910F91EF900895EF92FF920F931F93B6
:103840008C019B017A0160E270E0A901E6DCC8010D
:1038500061E270E0A701E1DCC80162E270E060DCD7
:103860001F910F91FF90EF90089560E070E040E0AD
:1038700050E0E2CF0F931F93CF93DF93EC018B01C6
:10388000F4DF898590E0880F991F8F55944FFC01D4
:10389000A591B4919C918D85809598239C938A8560
:1038A00090E0880F991F8F55944FFC01A591B4911A
:1038B0008C919E85892B8C938C8590E0880F991F25
:1038C0008F55944FFC01A591B4918C919889892BC7
:1038D0008C938B8590E0880F991F8F55944FFC0136
:1038E000A591B4918C919F85892B8C938FEF81B991
:1038F00020E03CE241E050E01DC08B8590E0880F65
:10390000991F8F55944FFC01A591B49112B99C91C8
:103910008F85809598239C938C919F85892B8C9380
:1039200002B99C918F85809598239C938C919F855B
:10393000892B8C932150310941095109F0F6898571
:1039400090E0880F991F8F55944FFC01A591B49179
:103950008C919D85892B8C93DF91CF911F910F9135
:103960000895CF93DF93EC018E81882319F060E0F6
:103970000E945B2562E070E080E090E024D78E81B9
:10398000882319F061E00E945B25CE0160E070E0C1
:103990004BDBCE0160E070E047DBCE0160E070E021
:1039A00043DBCE0160E070E03FDBDF91CF91089513
:1039B0000F931F93CF93DF938C01D3DFC0ECD5E03F
:1039C000FE0165917491FE013296459154916F3FCD
:1039D000710529F4BA0180E090E0F5D602C0C80173
:1039E0001CDC249686E0CC38D80751F7DF91CF91C4
:1039F0001F910F910895CF92DF92EF920F93CF9383
:103A0000DF936C01862FD60113961C921E9212979B
:103A100066E274E011967C936E9314968C931497DF
:103A200015964C93159717962C93179718960C93F9
:103A300018971696EC9216975C961C925C9720EF5E
:103A400030E052963C932E93519720E431E0549607
:103A50003C932E93539761E00E945B25E6018C8195
:103A600061E076D78D8161E00E945B258D8161E008
:103A70006FD78F8161E00E945B258F8161E068D7FD
:103A8000888561E00E945B25888561E061D78E8131
:103A900061E00E945B258E8161E05AD7EC81AE2FF8
:103AA000B0E025ED3BE0F901EA0FFB1FE491E98767
:103AB000ED816E2F70E0F901E60FF71FE491EA87C0
:103AC000EF814E2F50E0F901E40FF51FE491EB87F1
:103AD000888590E0280F391FF90124912C87CBE1CC
:103AE000DCE0AC0FBD1FFD012491D6011D962C9387
:103AF0001D976C0F7D1FFB0124911E962C931E9722
:103B00004C0F5D1FFA0124911F962C931F97C80F2D
:103B1000D91FFE01849150968C93509757961C9212
:103B20001E92569759961C921E92589781E0559670
:103B30008C9355978FEF9FEF5B969C938E935A973C
:103B4000DF91CF910F91EF90DF90CF900895FC011E
:103B500066834783208781E0858708950F931F93AD
:103B60008C01FC01868160E0F3D6F801868161E07A
:103B7000A2D7F80111861286138614861F910F9121
:103B80000895CF92DF92EF92FF920F931F93CF93FE
:103B9000DF93EC010AD69B01AC0189859A85AB8540
:103BA000BC85281739074A075B0720F419861A864F
:103BB0001B861C868D85882371F489859A85AB8543
:103BC000BC85281B390B4A0B5B0B205D37404040FE
:103BD000504008F475C01D86E8D569877A878B87C1
:103BE0009C871C821B821A82198218828E8161E056
:103BF00062D76AEF70E080E090E0E5D58E8161E009
:103C0000A7D68E8160E057D764E170E080E090E055
:103C1000DAD5F8948E8161E04ED788E290E02CD618
:103C20008E8160E095D681E0EE2400E010E009C0CE
:103C3000F39481E090E020D68FEFF81629F409C0C4
:103C4000822FFF24C82EDD248E8167D78C159D0519
:103C500079F38E8162D7282F8FEFF816C9F00430E0
:103C600090F000FD10C08E2D869586958695FE01FC
:103C7000E80FF11D9081990F908388858F1510F4BE
:103C800091609083E3940F5F1F4F05351105C1F6D6
:103C9000789487E28E1510F030E013C030E04C814C
:103CA00050E02981888190E0820F911D2A81820F46
:103CB000911D2B81820F911D90704817590709F4AF
:103CC00031E0832FDF91CF911F910F91FF90EF9003
:103CD000DF90CF900895EF92FF920F931F93CF93B1
:103CE000DF93EC014EDF8823A9F18F818B3031F017
:103CF0008B3080F18551823068F507C0688170E0B3
:103D000080E090E00E940B2E22C0688170E080E08D
:103D100090E00E940B2E20E030E040E853E40E9447
:103D2000C12E7B018C01698170E0882777FD809529
:103D3000982F0E940D2E9B01AC01C801B7010E9473
:103D40000A2D20E030E040E251E40E94722DE62F7F
:103D5000692F04C0E0E070E080EC6FE72E2F372F72
:103D6000482F562FB901CA01DF91CF911F910F91B2
:103D7000FF90EF900895CF92DF92EF92FF920F9312
:103D80001F93CF93DF93EC01C62EFBDE882309F44B
:103D900050C08F818B3041F08B3008F44AC0855180
:103DA000823008F046C007C06A8170E080E090E091
:103DB0000E940B2E29C0DA806D2D70E06F77707035
:103DC000882777FD8095982F0E940D2E20E030E007
:103DD00040E853E40E94C12E7B018C016B8170E0AE
:103DE000882777FD8095982F0E940D2E9B01AC01AE
:103DF000C801B7010E940A2D20E030E040E251E402
:103E00000E94722DD7FC9058CC20B9F020E030E011
:103E100040E151E40E94C12E20E030E040EA50E44D
:103E20000E94722D20E030E040E052E40E940A2D12
:103E300004C060E070E080EC9FE7DF91CF911F91BC
:103E40000F91FF90EF90DF90CF9008952F923F92C7
:103E50004F925F926F927F928F929F92AF92BF929A
:103E6000CF92DF92EF92FF920F931F93DF93CF9346
:103E700000D00F92CDB7DEB749835A836B837C8322
:103E800018012901CB01BA019B01AC010E94C12E8E
:103E90005B016C01C201B101A20191010E94C12E1E
:103EA0007B018C0169817A818B819C8121E133E2E4
:103EB00043E050E40E94C12E29E134E849E252E493
:103EC0000E94092D3B014C01C201B10126E13BE4F6
:103ED00042E251E40E94C12E9B01AC01C401B30136
:103EE0000E940A2D3B014C0169817A818B819C8162
:103EF00028E436E246E65EEB0E94C12EA201910163
:103F00000E94C12E9B01AC01C401B3010E940A2D85
:103F10003B014C01C601B50120EE3FE040EE5BEBFA
:103F20000E94C12E9B01AC01C401B3010E940A2D65
:103F30003B014C01C801B70128EF37E840E65DEBD3
:103F40000E94C12E9B01AC01C401B3010E940A2D45
:103F50003B014C01C601B5012CEA3DE041EA5AE3C0
:103F60000E94C12EA20191010E94C12E9B01AC01B1
:103F7000C401B3010E940A2D3B014C0169817A8181
:103F80008B819C8128EC3FE84FE55AE30E94C12ECB
:103F9000A80197010E94C12E9B01AC01C401B3018D
:103FA0000E940A2D3B014C01C601B50121EF3BE8FF
:103FB00045E056EB0E94C12EA80197010E94C12E38
:103FC0009B01AC01C401B3010E940A2D0F900F9018
:103FD0000F900F90CF91DF911F910F91FF90EF9075
:103FE000DF90CF90BF90AF909F908F907F906F9019
:103FF0005F904F903F902F900895FC018EE294E0E7
:1040000091838083638314821582178216821186BE
:10401000108622873387448755870895FC0165837E
:1040200008956F927F928F929F92AF92BF92CF929C
:10403000DF92EF92FF920F931F93CF93DF93FC01D8
:10404000EA01468157814115510531F04130510552
:1040500031F488E890E905C084E293E102C088EE7B
:104060009DEF8617970708F4DEC08C179D0708F4AC
:10407000DAC04115510551F04130510571F417EE88
:10408000E12E1FE0F12E012D112D0CC0B7E1EB2E1A
:10409000B5E7FB2E012D112D05C0E12CA4E0FA2E71
:1040A000012D112D80859185892B39F4E4E0EE0CEA
:1040B000FF1C001F111FEA95D1F79B0140E050E063
:1040C000C801B7010E94282F5B016C015AE0D69409
:1040D000C794B794A7945A95D1F79E0140E050E059
:1040E000C801B7010E94282F3B014C014AE0969479
:1040F0008794779467944A95D1F7A114B104C104C9
:10410000D10429F480E090E0A0E0B0E00FC0C40149
:10411000B3013AE0660F771F881F991F3A95D1F7D0
:10412000A60195010E945A2FC901DA010196A11D2D
:10413000B11DB695A7959795879581349105A105F1
:10414000B10528F462EF71E0CEEBD1E049C08138CF
:104150009105A105B10528F464E172E0C1EDD2E05A
:104160003FC0813C9105A105B10528F46FE372E0E1
:10417000CBE7D3E035C0813021E0920720E0A207F1
:1041800020E0B20728F460E772E0CEEFD3E028C069
:10419000893321E0920720E0A20720E0B20728F44B
:1041A0006FE671E0CCEFD1E01BC08B3921E09207C4
:1041B00020E0A20720E0B20728F462ED70E0CBEF28
:1041C000D0E00EC08B599240A040B04028F060E093
:1041D00070E0C0E0D0E004C068E170E0C2E1D0E08F
:1041E00080E090E0A60195010E94282F7B018C01C0
:1041F00080E090E2A0E0B0E0E80EF91E0A1F1B1F6D
:10420000BE0180E090E0A40193010E94282FE61AED
:10421000F70A080B190B8EE016950795F794E794AB
:104220008A95D1F703C0EE24FF248701B701C801A6
:10423000DF91CF911F910F91FF90EF90DF90CF9082
:10424000BF90AF909F908F907F906F900895EF9266
:10425000FF920F931F937C018B0188E2FB01119267
:104260008A95E9F7CB016EEE73E04BE050E00E94D7
:104270008606F801138681E090E0A0E0B0E0848734
:104280009587A687B787F70182859385A485B5852D
:10429000F801808B918BA28BB38B85E090E0A0E03E
:1042A000B0E0848B958BA68BB78B14A215A216A2B7
:1042B00017A280E090EDA4E8B6E4808F918FA28FE2
:1042C000B38F80E090E0A0E0B0E0848F958FA68F60
:1042D000B78F80E090E0A0E8BFE380A391A3A2A302
:1042E000B3A31F910F91FF90EF900895BF92CF92CB
:1042F000DF92EF92FF920F931F93B62E79018A01FE
:1043000026E0C22E25E0D22EDC0113966C91772791
:1043100067FD7095C6010E946F0EC6016B2D0E944D
:10432000F00E8FEF90E0A0E0B0E0E822F9220A233F
:104330001B23C6016E2D0E94F00EC6010E94310F94
:104340001F910F91FF90EF90DF90CF90BF90089555
:1043500060E820E030E040E050E0C8CF60E823E0D3
:1043600030E040E050E0C2CFDF92EF92FF920F9337
:104370001F937C01D62E06E015E0FC0163817727B0
:1043800067FD7095C8010E946F0EC8016D2D0E94D7
:10439000F00EC8010E94310FF7016381772767FD96
:1043A0007095C80142E050E00E943F0FC8010E9492
:1043B000820E7C01C8010E94820E382F20E02E2937
:1043C0003F29C9011F910F91FF90EF90DF90089551
:1043D000EF92FF920F931F93CF93DF93EC018B012A
:1043E0007A01BCDF8E819F81009719F0019759F403
:1043F00005C06EE070E080E090E009C066E670E025
:1044000080E090E004C063E971E080E090E0DBD1FF
:10441000CE016CEAA9DFF80191838083CE016EEAB8
:10442000A3DFF70191838083CE0192DFDF91CF91EB
:104430001F910F91FF90EF900895DF92EF92FF92FE
:104440000F931F937C01D62E06E015E0FC016381DB
:10445000772767FD7095C8010E946F0EC8016D2D0A
:104460000E94F00EC8010E94310FF7016381772787
:1044700067FD7095C80141E050E00E943F0FC80100
:104480000E94820E1F910F91FF90EF90DF90089590
:10449000CF93DF93EC0186E095E00E94410FCE01BF
:1044A0006AE0CBDF8A7069F081E08C836E817F8166
:1044B000CE0112D168857985CE0106D0CE0148DFC4
:1044C00081E0DF91CF9108950F931F93CF93DF93F6
:1044D000EC018B018C81882311F4CE01D9DFCE0150
:1044E0003DDF2E813F81202B312B442737FD409526
:1044F000542FCE0161E8FADE19870887CE0128DF44
:10450000DF91CF911F910F9108953F924F925F924B
:104510006F927F928F929F92AF92BF92CF92DF92D3
:10452000EF92FF920F931F93DF93CF9300D00F92E0
:10453000CDB7DEB78C015B014A01FC018481882381
:1045400011F4C801A5DFF8018581882329F4C80189
:10455000B501A4013DDF58C03324F3E04F2E512CA8
:104560004C0E5D1E3E010894611C711CF801868191
:104570009781009751F0019781F4E0EACE2EECE8A4
:10458000DE2E78ECE72EF12C10C062EFC62E62E131
:10459000D62E54E6E52EF12C08C048E1C42E46EF95
:1045A000D42E34EFE32E31E0F32EC801B301A20183
:1045B0000FDF29813A813320F9F42E153F0548F4A5
:1045C000F80180859185892B21F4C80160E170E0B4
:1045D0000BC0C216D30680F4F80180859185409700
:1045E00059F4C80160E070E06FDFC801B301A201B7
:1045F000EFDE33243394BACFF501318320838B81EE
:104600009C81F401918380830F900F900F900F9005
:10461000CF91DF911F910F91FF90EF90DF90CF909E
:10462000BF90AF909F908F907F906F905F904F90D2
:104630003F900895EF92FF920F931F93DF93CF93D4
:1046400000D00F92CDB7DEB77C018B0184E2FB0175
:1046500011928A95E9F784E290E0A0E0B0E0FB01D6
:1046600080839183A283B383F70182859385A48598
:10467000B585FB0184839583A683B78385E090E0AD
:10468000A0E0B0E080879187A287B3878ED0F80141
:10469000608B718B828B938BC701BE016F5F7F4FE5
:1046A000AE014D5F5F4F31DF69817A814B815C8163
:1046B000C701B7DC0E940B2EF801648B758B868BCB
:1046C000978B0F900F900F900F90CF91DF911F91CC
:1046D0000F91FF90EF9008950F931F93CF93DF9367
:1046E000EC018B018C81882311F4CE01D1DECE0147
:1046F00035DE28853985202B312B442737FD409521
:10470000542FCE0161E8F2DD1F830E83CE0120DE3F
:10471000DF91CF911F910F9108951F920F920FB6C5
:104720000F9211242F933F938F939F93AF93BF9337
:104730008091850590918605A0918705B0918805A7
:10474000309189050196A11DB11D232F2D5F2D37B5
:1047500020F02D570196A11DB11D2093890580934E
:10476000850590938605A0938705B0938805809171
:10477000810590918205A0918305B09184050196F1
:10478000A11DB11D8093810590938205A09383059F
:10479000B0938405BF91AF919F918F913F912F91DD
:1047A0000F900FBE0F901F9018958FB7F89420911F
:1047B00085053091860540918705509188058FBF0A
:1047C000B901CA0108959B01AC017FB7F8948091AB
:1047D000810590918205A0918305B091840566B50D
:1047E000A89B05C06F3F19F00196A11DB11D7FBFA9
:1047F000BA2FA92F982F8827860F911DA11DB11DB3
:1048000062E0880F991FAA1FBB1F6A95D1F7BC01F0
:104810002DC0FFB7F8948091810590918205A091F9
:104820008305B0918405E6B5A89B05C0EF3F19F05C
:104830000196A11DB11DFFBFBA2FA92F982F882760
:104840008E0F911DA11DB11DE2E0880F991FAA1FB7
:10485000BB1FEA95D1F7861B970B885E9340C8F281
:10486000215030404040504068517C4F2115310567
:104870004105510571F60895019739F0880F991F88
:10488000880F991F02970197F1F70895789484B5DE
:10489000826084BD84B5816084BD85B5826085BD3C
:1048A00085B5816085BDEEE6F0E080818160808322
:1048B000E1E8F0E010828081826080838081816005
:1048C0008083E0E8F0E0808181608083E1EBF0E0CC
:1048D000808184608083E0EBF0E080818160808370
:1048E000E1E9F0E080818260808380818160808363
:1048F000E0E9F0E0808181608083E1EAF0E080819E
:1049000082608083808181608083E0EAF0E0808142
:1049100081608083E1E2F1E0808182608083808138
:1049200081608083E0E2F1E0808181608083EAE75A
:10493000F0E08081846080838081826080838081D8
:10494000816080838081806880831092C100089597
:10495000CF93DF93482F50E0CA01855E934FFC014F
:1049600034914B52544FFA018491882369F190E0BD
:10497000880F991FFC01E957F44FA591B491FC01F0
:10498000EF55F44FC591D491662351F42FB7F894A5
:104990008C91932F909589238C93888189230BC0C8
:1049A000623061F42FB7F8948C91932F90958923FE
:1049B0008C938881832B88832FBF06C09FB7F89480
:1049C0008C91832B8C939FBFDF91CF910895893079
:1049D00009F449C08A30A0F4843051F1853040F4A4
:1049E000823079F1833000F5813009F063C026C050
:1049F000873079F1883098F5863009F05BC025C0A2
:104A00008D3009F442C08E3028F48B30B1F18C30F7
:104A1000C0F52DC0803109F442C0813109F445C090
:104A20008F3009F047C037C0809180008F7703C076
:104A3000809180008F7D80938000089584B58F776A
:104A400002C084B58F7D84BD08958091B0008F77BA
:104A500003C08091B0008F7D8093B0000895809155
:104A600090008F7707C0809190008F7D03C0809168
:104A70009000877F8093900008958091A0008F77A9
:104A800007C08091A0008F7D03C08091A000877F28
:104A90008093A0000895809120018F7703C08091BA
:104AA00020018F7D80932001089580912001877FD0
:104AB000809320010895FF920F931F93F62E482FA5
:104AC00050E0CA018F59934FFC012491CA01855EC1
:104AD000934FFC0114914B52544FFA01049100235F
:104AE000C1F0222311F0822F72DFE02FF0E0EE0FF1
:104AF000FF1FEF55F44FA591B4919FB7F894FF2095
:104B000021F48C911095812302C08C91812B8C9380
:104B10009FBF1F910F91FF9008950F931F93482FF0
:104B200050E0CA018F59934FFC012491CA01855E60
:104B3000934FFC0104914B52544FFA0114911123ED
:104B400019F420E030E014C0222311F0822F3FDF5F
:104B5000812F90E0880F991F8554944FFC01A591F7
:104B6000B4918C9120E030E0802311F021E030E01E
:104B7000C9011F910F91089508951F920F920FB6CA
:104B80000F920BB60F9211242F933F934F938F9355
:104B90009F93EF93FF938091C00082FD1DC04091D1
:104BA000C6002091CA053091CB052F5F3F4F2F7370
:104BB00030708091CC059091CD052817390771F0A0
:104BC000E091CA05F091CB05E657FA4F4083309348
:104BD000CB052093CA0502C08091C600FF91EF91DA
:104BE0009F918F914F913F912F910F900BBE0F90FE
:104BF0000FBE0F901F90189508951F920F920FB639
:104C00000F920BB60F9211242F933F934F938F93D4
:104C10009F93EF93FF938091C80082FD1DC0409148
:104C2000CE0020915206309153062F5F3F4F2F73D5
:104C3000307080915406909155062817390771F00D
:104C4000E0915206F0915306EE5EF94F40833093A7
:104C500053062093520602C08091CE00FF91EF913F
:104C60009F918F914F913F912F910F900BBE0F907D
:104C70000FBE0F901F90189508951F920F920FB6B8
:104C80000F920BB60F9211242F933F934F938F9354
:104C90009F93EF93FF938091D00082FD1DC04091C0
:104CA000D6002091DA063091DB062F5F3F4F2F733D
:104CB00030708091DC069091DD062817390771F07D
:104CC000E091DA06F091DB06E656F94F4083309327
:104CD000DB062093DA0602C08091D600FF91EF91A7
:104CE0009F918F914F913F912F910F900BBE0F90FD
:104CF0000FBE0F901F90189508951F920F920FB638
:104D00000F920BB60F9211242F933F934F938F93D3
:104D10009F93EF93FF938091300182FD1DC04091DE
:104D2000360120916207309163072F5F3F4F2F7349
:104D3000307080916407909165072817390771F0EA
:104D4000E0916207F0916307EE5DF84F4083309386
:104D500063072093620702C080913601FF91EF91B3
:104D60009F918F914F913F912F910F900BBE0F907C
:104D70000FBE0F901F901895E091B607F091B707FE
:104D8000E05CFF4F8191919120813181821B930BD7
:104D90008F739070892B09F0EFDEE091D807F091C6
:104DA000D907E05CFF4F8191919120813181821B75
:104DB000930B8F739070892B09F01EDFE091FA0737
:104DC000F091FB07E05CFF4F81919191208131814F
:104DD000821B930B8F739070892B09F04DDFE0914C
:104DE0001C08F0911D08E05CFF4F8191919120819A
:104DF0003181821B930B8F739070892B09F07CCFCC
:104E000008951F920F920FB60F920BB60F921124B6
:104E10002F933F938F939F93EF93FF9320910E06D1
:104E200030910F06809110069091110628173907CE
:104E300031F48091C1008F7D8093C10014C0E09156
:104E40001006F0911106E253FA4F2081809110066E
:104E50009091110601968F73907090931106809334
:104E600010062093C600FF91EF919F918F913F9183
:104E70002F910F900BBE0F900FBE0F901F901895A3
:104E80001F920F920FB60F920BB60F9211242F9311
:104E90003F938F939F93EF93FF93209196063091CA
:104EA000970680919806909199062817390731F452
:104EB0008091C9008F7D8093C90014C0E09198064D
:104EC000F0919906EA5AF94F2081809198069091C5
:104ED000990601968F739070909399068093980627
:104EE0002093CE00FF91EF919F918F913F912F9151
:104EF0000F900BBE0F900FBE0F901F9018951F9232
:104F00000F920FB60F920BB60F9211242F933F936F
:104F10008F939F93EF93FF9320911E0730911F076C
:104F200080912007909121072817390731F480914B
:104F3000D1008F7D8093D10014C0E0912007F091C3
:104F40002107E252F94F208180912007909121079B
:104F500001968F7390709093210780932007209380
:104F6000D600FF91EF919F918F913F912F910F90DC
:104F70000BBE0F900FBE0F901F9018951F920F92AF
:104F80000FB60F920BB60F9211242F933F938F936E
:104F90009F93EF93FF932091A6073091A7078091ED
:104FA000A8079091A9072817390731F4809131019A
:104FB0008F7D8093310114C0E091A807F091A9077B
:104FC000EA59F84F20818091A8079091A90701968E
:104FD0008F7390709093A9078093A8072093360150
:104FE000FF91EF919F918F913F912F910F900BBE69
:104FF0000F900FBE0F901F901895AF92BF92DF9247
:10500000EF92FF920F931F93CF93DF93EC017A01FE
:105010008B01DD24403081EE580780E0680780E096
:10502000780711F0DD24D39491E0A92EB12CEC89FE
:10503000FD89DD2069F0C50108A002C0880F991F15
:105040000A94E2F7808360E079E08DE390E005C0A8
:10505000108260E874E88EE190E0A80197012AD7F9
:105060002150304040405040569547953795279500
:1050700080E12030380720F0DD2011F0DD24D7CF8B
:10508000E889F9893083EA89FB89208319A2EE89AE
:10509000FF89408121E030E0C9010C8C02C0880FFB
:1050A000991F0A94E2F7482B4083EE89FF894081DB
:1050B000C9010D8C02C0880F991F0A94E2F7482B92
:1050C0004083EE89FF894081C9010E8C02C0880FA0
:1050D000991F0A94E2F7482B4083EE89FF8980816B
:1050E0000F8C02C0220F331F0A94E2F72095282369
:1050F0002083DF91CF911F910F91FF90EF90DF9070
:10510000BF90AF900895DC011C96ED91FC911D9726
:10511000E05CFF4F2191319180819181281B390BF7
:105120002F733070C9010895DC011C96ED91FC913C
:105130001D97E05CFF4F20813181E054F040DF019A
:10514000AE5BBF4F8D919C9111972817390719F4C9
:105150002FEF3FEF07C08D919C91E80FF91F8081E1
:10516000282F30E0C9010895DC011C96ED91FC91D7
:105170001D97E05CFF4F20813181E054F040DF015A
:10518000AE5BBF4F8D919C9111972817390719F489
:105190002FEF3FEF10C08D919C911197E80FF91FF1
:1051A00020818D919C91119701968F73907011962B
:1051B0009C938E9330E0C9010895DC0191968C9107
:1051C0009197882339F05496ED91FC915597808101
:1051D00086FFF9CF91961C920895CF93DF93EC014F
:1051E000EE85FF85E05CFF4F20813181E054F04087
:1051F0002F5F3F4F2F733070DF01AE5BBF4F8D913C
:105200009C91119728173907D1F3E05CFF4F8081FB
:105210009181E054F040E80FF91F6083EE85FF852F
:10522000E05CFF4F31832083EE89FF89208181E09C
:1052300090E00F8C02C0880F991F0A94E2F7282B88
:10524000208381E089A3EC89FD898081806480834B
:1052500081E090E0DF91CF9108951F931092AD0708
:105260001092AC0728EE33E040E050E02093AE0708
:105270003093AF074093B0075093B10768E374E0F1
:105280007093AB076093AA078AE895E09093B707FD
:105290008093B6078EEC95E09093B9078093B8079A
:1052A00085EC90E09093BB078093BA0784EC90E084
:1052B0009093BD078093BC0780EC90E09093BF076C
:1052C0008093BE0781EC90E09093C1078093C00764
:1052D00082EC90E09093C3078093C20786EC90E045
:1052E0009093C5078093C40714E01093C607B3E0FA
:1052F000B093C707A7E0A093C807F5E0F093C907EC
:10530000E1E0E093CA071092CF071092CE072093F6
:10531000D0073093D1074093D2075093D3077093AF
:10532000CD076093CC0782E196E09093D9078093F4
:10533000D80786E596E09093DB078093DA078DEC3B
:1053400090E09093DD078093DC078CEC90E09093E5
:10535000DF078093DE0788EC90E09093E10780936D
:10536000E00789EC90E09093E3078093E2078AECF2
:1053700090E09093E5078093E4078EEC90E09093A3
:10538000E7078093E6071093E807B093E907A09337
:10539000EA07F093EB07E093EC071092F107109205
:1053A000F0072093F2073093F3074093F4075093EC
:1053B000F5077093EF076093EE078AE996E0909304
:1053C000FB078093FA078EED96E09093FD0780939C
:1053D000FC0785ED90E09093FF078093FE0784ED36
:1053E00090E0909301088093000880ED90E0909306
:1053F00003088093020881ED90E090930508809364
:10540000040882ED90E0909307088093060886EDEB
:1054100090E0909309088093080810930A08B093CD
:105420000B08A0930C08F0930D08E0930E0810925F
:105430001308109212082093140830931508409313
:10544000160850931708709311086093100882E2B1
:1054500097E090931D0880931C0886E697E0909350
:105460001F0880931E0885E391E0909321088093A4
:10547000200884E391E0909323088093220880E33E
:1054800091E0909325088093240881E391E0909324
:1054900027088093260882E391E09093290880935F
:1054A000280886E391E090932B0880932A081093B4
:1054B0002C08B0932D08A0932E08F0932F08E093AA
:1054C00030081F910895CF93DF93E0D90E94790CA3
:1054D000CCEBD6E20E94670E2097E1F34DDCFACFC9
:1054E000CF92DF92EF92FF920F931F93CF93DF93B0
:1054F0007C016B018A01C0E0D0E00FC0D6016D9144
:105500006D01D701ED91FC910190F081E02DC70173
:105510001995C80FD91F015010400115110571F7D9
:10552000CE01DF91CF911F910F91FF90EF90DF900F
:10553000CF900895EF92FF920F931F93CF93DF9335
:105540007C018B01C0E0D0E0F8010F5F1F4F649138
:10555000662359F0D701ED91FC910190F081E02D87
:10556000C7011995C80FD91FEFCFCE01DF91CF9199
:105570001F910F91FF90EF900895EF92FF920F937C
:105580001F938C01DC01ED91FC910190F081E02DE5
:105590006DE019957C01D801ED91FC910190F081AD
:1055A000E02DC8016AE019959C012E0D3F1DC9012F
:1055B0001F910F91FF90EF900895EF92FF920F933C
:1055C0001F937C01B7DF8C01C701D7DF9C01200F3F
:1055D000311FC9011F910F91FF90EF900895CF9354
:1055E000DF93EC016115710519F420E030E00FC084
:1055F000DB010D900020E9F71197A61BB70BE8819E
:10560000F9810280F381E02DAD0119959C01C9015A
:10561000DF91CF9108954F925F927F928F929F92E8
:10562000AF92BF92CF92DF92EF92FF920F931F93B0
:10563000DF93CF93CDB7DEB7A1970FB6F894DEBF57
:105640000FBECDBF2C01742ECB01223008F42AE00E
:1056500019A231E2C32ED12CCC0EDD1E822E99244C
:10566000AA24BB24672D752FA501940123D47901A9
:105670008A01C801B701A5019401EAD3472D461B51
:105680000894C108D1084A3014F4405D01C0495C57
:10569000F6014083E114F1040105110521F07E2C8F
:1056A0005F2DC801DFCFC201B60199DFA1960FB609
:1056B000F894DEBF0FBECDBFCF91DF911F910F9148
:1056C000FF90EF90DF90CF90BF90AF909F908F9022
:1056D0007F905F904F900895DC012115310541F4D2
:1056E000ED91FC910190F081E02D642F19950895C2
:1056F00092CFCF92DF92EF92FF920F931F936C01A4
:105700007B019A0100E010E0B801A701E5DF8C0100
:10571000C60133DF080F191FC8011F910F91FF90B9
:10572000EF90DF90CF900895EF92FF920F931F9329
:105730009A01E62EFF2400E010E0B801A701CCDFBB
:105740001F910F91FF90EF900895CF92DF92EF920B
:10575000FF920F931F93CF93DF93EC016A017B01BC
:105760002115310541F4E881F9810190F081E02DA6
:10577000642F19951DC02A303105C9F477FF16C072
:10578000E881F9810190F081E02D6DE219958C019D
:1057900044275527BA014C195D096E097F09CE01CE
:1057A0002AE039DF9801280F391F03C02AE033DFD0
:1057B0009C01C901DF91CF911F910F91FF90EF9054
:1057C000DF90CF900895EF92FF920F931F937B018C
:1057D0009A010027F7FC0095102FB801A701B5DF4B
:1057E0001F910F91FF90EF900895CF92DF92EF926B
:1057F000FF920F931F936C017B019A010027F7FC26
:105800000095102FB801A701A0DF8C01C601B5DEFD
:10581000080F191FC8011F910F91FF90EF90DF90A3
:10582000CF900895DCCE08957F928F929F92AF9291
:10583000BF92CF92DF92EF92FF920F931F93CF937D
:10584000DF934C017A018B01722ECB01BA01A801C2
:105850009701FAD2882321F0C40166EF73E01FC0DC
:10586000C0E0D0E057016801E894D7F8C601B5015F
:105870002FEF3FEF4FE75FE7E7D2882349F4C601F8
:10588000B5012FEF3FEF4FE75FE728D1181614F06F
:10589000C1E0D0E0219731F0C4016AEF73E09FDEF0
:1058A000EC0184C0C801B7012FEF3FEF4FE75FE481
:1058B00064D218164CF0C801B7012FEF3FEF4FE745
:1058C0005FEC0CD1882324F4C4016EEF73E0E7CFC2
:1058D000C801B70120E030E040E050E0FFD087FD94
:1058E00003C0C0E0D0E00EC0D401ED91FC91019066
:1058F000F081E02DC4016DE21995EC0117FB1095C4
:1059000017F9109520E030E040E05FE3DD240AC0A5
:10591000CA01B90120E030E040E251E4E3D09B014C
:10592000AC01D394D714A0F3C801B70173D05B01C5
:105930006C0145D17B018C01C401B801A7012AE0AB
:1059400030E0CADEC80FD91F772031F0C40162E011
:1059500074E045DEC80FD91FC801B7015CD19B01B7
:10596000AC01C601B50155D01FC020E030E040E2D7
:1059700051E407D27B018C011DD15B016C01CC2469
:10598000B7FCC094DC2CC401B601A5012AE030E0CC
:10599000DCDEC80FD91FC601B5013FD19B01AC01A8
:1059A000C801B70136D07A947720F9F6CE01DF919D
:1059B000CF911F910F91FF90EF90DF90CF90BF900C
:1059C000AF909F908F907F9008952ECF0895EF9283
:1059D000FF920F931F937C0127DF8C01C701CDDD60
:1059E000080F191FC8011F910F91FF90EF900895A4
:1059F000EF92FF920F931F937C01F1DD8C01C701A1
:105A0000BCDD080F191FC8011F910F91FF90EF9087
:105A100008955058BB27AA270ED075C166D130F023
:105A20006BD120F031F49F3F11F41EF45BC10EF4F2
:105A3000E095E7FB51C1E92F77D180F3BA176207F0
:105A400073078407950718F071F49EF58FC10EF463
:105A5000E0950B2EBA2FA02D0B01B90190010C017E
:105A6000CA01A0011124FF27591B99F0593F50F496
:105A7000503E68F11A16F040A22F232F342F4427EE
:105A8000585FF3CF469537952795A795F0405395E6
:105A9000C9F77EF41F16BA0B620B730B840BBAF0B6
:105AA0009150A1F0FF0FBB1F661F771F881FC2F721
:105AB0000EC0BA0F621F731F841F48F48795779535
:105AC0006795B795F7959E3F08F0B3CF9395880FEC
:105AD00008F09927EE0F979587950895D9D008F487
